:020000040800F2
:1000000000000120714E0008A14C0008A94C000816
:10001000B14C0008B94C0008C14C000800000000B9
:10002000000000000000000000000000C94C0008B3
:10003000D74C000800000000E54C0008F34C000815
:10004000C14E0008C14E0008C14E0008C14E000854
:10005000C14E0008C14E0008C14E0008C14E000844
:10006000C14E0008C14E0008C14E0008C14E000834
:10007000C14E0008C14E0008C14E0008C14E000824
:10008000C14E0008C14E0008014D0008C14E0008D5
:10009000C14E0008C14E0008C14E0008C14E000804
:1000A000C14E0008C14E0008C14E0008C14E0008F4
:1000B000C14E00080000000000000000C14E000812
:1000C000C14E0008C14E0008C14E0008C14E0008D4
:1000D000C14E0008C14E0008C14E0008C14E0008C4
:1000E000C14E0008C14E00080000000000000000E2
:1000F0000000000000000000000000000000000000
:1001000000000000C14E000800000000C14E0008C1
:100110000000000000000000C14E0008C14E0008B1
:10012000C14E0008C14E0008C14E0008C14E000873
:10013000C14E0008000000000000000000000000A8
:10014000C14E0008C14E0008C14E0008000000006A
:10015000C14E0008C14E0008C14E0008C14E000843
:10016000C14E0008C14E0008C14E0008000000004A
:10017000C14E0008C14E0008000000000000000051
:0C018000C14E0008C14E0008C14E00082E
:1001900010B5054C237833B9044B13B10448AFF3C1
:1001A00000800123237010BD7800002000000000B3
:1001B00060FF000808B5034B1BB103490348AFF3C8
:1001C000008008BD000000007C00002060FF0008E7
:1001D00001F0FF01102A2BDB10F0070F08D010F8F8
:1001E000013B013A8B422DD010F0070F42B3F6D1FC
:1001F000F0B441EA012141EA014122F007047FF015
:1002000000070023F0E80256083C85EA010586EA6B
:10021000010685FA47F5A3FA87F586FA47F6A5FAA7
:1002200087F68EB9EED1F0BC01F0FF0102F00702B3
:1002300032B110F8013B013A83EA010313B1F8D15E
:100240000020704701387047002D06BF354603383F
:10025000073815F0010F07D1013015F4807F02BF78
:10026000013015F4C03F0130F0BC0138704700BFC9
:10027000034613F8012B002AFBD1181A01387047E6
:1002800081F0004102E000BF83F0004330B54FEA47
:1002900041044FEA430594EA050F08BF90EA020FB4
:1002A0001FBF54EA000C55EA020C7FEA645C7FEA47
:1002B000655C00F0E2804FEA5454D4EB5555B8BF6A
:1002C0006D420CDD2C4480EA020281EA030382EADB
:1002D000000083EA010180EA020281EA0303362D6D
:1002E00088BF30BD11F0004F4FEA01314FF4801C40
:1002F0004CEA113102D0404261EB410113F0004F52
:100300004FEA03334CEA133302D0524263EB430308
:1003100094EA050F00F0A780A4F10104D5F1200EA6
:100320000DDB02FA0EFC22FA05F2801841F1000101
:1003300003FA0EF2801843FA05F359410EE0A5F1D5
:1003400020050EF1200E012A03FA0EFC28BF4CF006
:10035000020C43FA05F3C01851EBE37101F00045BC
:1003600007D54FF0000EDCF1000C7EEB00006EEBC9
:100370000101B1F5801F1BD3B1F5001F0CD3490853
:100380005FEA30004FEA3C0C04F101044FEA4452AA
:1003900012F5800F80F09A80BCF1004F08BF5FEA31
:1003A000500C50F1000041EB045141EA050130BD11
:1003B0005FEA4C0C404141EB0101013C28BFB1F523
:1003C000801FE9D291F0000F04BF01460020B1FA6E
:1003D00081F308BF2033A3F10B03B3F120020CDA41
:1003E0000C3208DD02F1140CC2F10C0201FA0CF01F
:1003F00021FA02F10CE002F11402D8BFC2F1200C84
:1004000001FA02F120FA0CFCDCBF41EA0C01904039
:10041000E41AA2BF01EB0451294330BD6FEA040482
:100420001F3C1CDA0C340EDC04F11404C4F120026D
:1004300020FA04F001FA02F340EA030021FA04F37F
:1004400045EA030130BDC4F10C04C4F1200220FAD6
:1004500002F001FA04F340EA0300294630BD21FA14
:1004600004F0294630BD94F0000F83F4801306BFDA
:1004700081F480110134013D4EE77FEA645C18BFCE
:100480007FEA655C29D094EA050F08BF90EA020F65
:1004900005D054EA000C04BF1946104630BD91EA5D
:1004A000030F1EBF0021002030BD5FEA545C05D160
:1004B0004000494128BF41F0004130BD14F580049F
:1004C0003CBF01F5801130BD01F0004545F0FE4113
:1004D00041F470014FF0000030BD7FEA645C1ABF48
:1004E000194610467FEA655C1CBF0B46024650EA7F
:1004F000013406BF52EA033591EA030F41F40021AB
:1005000030BD00BF90F0000F04BF0021704730B530
:100510004FF4806404F132044FF000054FF0000105
:1005200050E700BF90F0000F04BF0021704730B5C6
:100530004FF4806404F1320410F0004548BF40429B
:100540004FF000013EE700BF42004FEAE2014FEAF0
:1005500031014FEA02701FBF12F07F4393F07F4FCB
:1005600081F06051704732F07F4208BF704793F0CE
:100570007F4F04BF41F40021704730B54FF46074E1
:1005800001F0004521F000411CE700BF50EA0102E4
:1005900008BF704730B54FF000050AE050EA01028D
:1005A00008BF704730B511F0004502D5404261EBFD
:1005B00041014FF4806404F132045FEA915C3FF43E
:1005C000D8AE4FF003025FEADC0C18BF03325FEADB
:1005D000DC0C18BF033202EBDC02C2F1200300FA8C
:1005E00003FC20FA02F001FA03FE40EA0E0021FAB1
:1005F00002F11444BDE600BF70B54FF0FF0C4CF49F
:10060000E06C1CEA11541DBF1CEA135594EA0C0F50
:1006100095EA0C0F00F0DEF82C4481EA030621EA8B
:100620004C5123EA4C5350EA013518BF52EA0335C6
:1006300041F4801143F4801338D0A0FB02CE4FF078
:100640000005E1FB02E506F00042E0FB03E54FF0A8
:100650000006E1FB03569CF0000F18BF4EF0010EA0
:10066000A4F1FF04B6F5007F64F5407404D25FEA9C
:100670004E0E6D4146EB060642EAC62141EA55514F
:100680004FEAC52040EA5E504FEACE2EB4F1FD0C91
:1006900088BFBCF5E06F1ED8BEF1004F08BF5FEA0F
:1006A000500E50F1000041EB045170BD06F00046C1
:1006B00046EA010140EA020081EA0301B4EB5C046E
:1006C000C2BFD4EB0C0541EA045170BD41F4801166
:1006D0004FF0000E013C00F3AB8014F1360FDEBF8B
:1006E000002001F0004170BDC4F10004203C35DA67
:1006F0000C341BDC04F11404C4F1200500FA05F3EA
:1007000020FA04F001FA05F240EA020001F000428A
:1007100021F0004110EBD37021FA04F642EB060100
:100720005EEA430E08BF20EAD37070BDC4F10C042A
:10073000C4F1200500FA04F320FA05F001FA04F2EE
:1007400040EA020001F0004110EBD37041F10001DA
:100750005EEA430E08BF20EAD37070BDC4F12005E5
:1007600000FA05F24EEA020E20FA04F301FA05F24D
:1007700043EA020321FA04F001F0004121FA04F2F5
:1007800020EA020000EBD3705EEA430E08BF20EAC5
:10079000D37070BD94F0000F0FD101F000464000FF
:1007A00041EB010111F4801F08BF013CF7D041EA81
:1007B000060195F0000F18BF704703F00046520085
:1007C00043EB030313F4801F08BF013DF7D043EA56
:1007D0000603704794EA0C0F0CEA135518BF95EA0C
:1007E0000C0F0CD050EA410618BF52EA4306D1D193
:1007F00081EA030101F000414FF0000070BD50EAB2
:10080000410606BF1046194652EA430619D094EA3B
:100810000C0F02D150EA013613D195EA0C0F05D125
:1008200052EA03361CBF104619460AD181EA030179
:1008300001F0004141F0FE4141F470014FF0000031
:1008400070BD41F0FE4141F4780170BD70B54FF0CC
:10085000FF0C4CF4E06C1CEA11541DBF1CEA13554C
:1008600094EA0C0F95EA0C0F00F0A7F8A4EB05042E
:1008700081EA030E52EA03354FEA013100F0888025
:100880004FEA03334FF0805545EA131343EA1263EE
:100890004FEA022245EA111545EA10654FEA0026A3
:1008A0000EF000419D4208BF964244F1FD0404F55C
:1008B000407402D25B084FEA3202B61A65EB0305B8
:1008C0005B084FEA32024FF480104FF4002CB6EB75
:1008D000020E75EB030E22BFB61A754640EA0C00F5
:1008E0005B084FEA3202B6EB020E75EB030E22BF35
:1008F000B61A754640EA5C005B084FEA3202B6EB76
:10090000020E75EB030E22BFB61A754640EA9C0034
:100910005B084FEA3202B6EB020E75EB030E22BF04
:10092000B61A754640EADC0055EA060E18D04FEAC2
:10093000051545EA16754FEA06164FEAC30343EA62
:1009400052734FEAC2025FEA1C1CC0D111F4801F2F
:100950000BD141EA00014FF000004FF0004CB6E728
:1009600011F4801F04BF01430020B4F1FD0C88BFC7
:10097000BCF5E06F3FF6AFAEB5EB030C04BFB6EBD2
:10098000020C5FEA500C50F1000041EB045170BDC5
:100990000EF0004E4EEA113114EB5C04C2BFD4EBF2
:1009A0000C0541EA045170BD41F480114FF0000E76
:1009B000013C90E645EA060E8DE60CEA135594EAF2
:1009C0000C0F08BF95EA0C0F3FF43BAF94EA0C0FF5
:1009D0000AD150EA01347FF434AF95EA0C0F7FF46A
:1009E00025AF104619462CE795EA0C0F06D152EABE
:1009F00003353FF4FDAE1046194622E750EA4106A2
:100A000018BF52EA43067FF4C5AE50EA41047FF4B2
:100A10000DAF52EA43057FF4EBAE12E74FF0FF3C17
:100A200006E000BF4FF0010C02E000BF4FF0010CE8
:100A30004DF804CD4FEA410C7FEA6C5C4FEA430C61
:100A400018BF7FEA6C5C1BD001B050EA410C0CBFB0
:100A500052EA430C91EA030F02BF90EA020F002012
:100A6000704710F1000F91EA030F58BF994208BF79
:100A700090422CBFD8176FEAE37040F00100704736
:100A80004FEA410C7FEA6C5C02D150EA013C07D18D
:100A90004FEA430C7FEA6C5CD6D152EA033CD3D0D8
:100AA0005DF8040B704700BF8446104662468C46D2
:100AB0001946634600E000BF01B5FFF7B7FF002805
:100AC00048BF10F1000F01BD4DF808EDFFF7F4FF2E
:100AD0000CBF012000205DF808FB00BF4DF808EDB9
:100AE000FFF7EAFF34BF012000205DF808FB00BFDC
:100AF0004DF808EDFFF7E0FF94BF012000205DF8FE
:100B000008FB00BF4DF808EDFFF7CEFF94BF0120B2
:100B100000205DF808FB00BF4DF808EDFFF7C4FFAB
:100B200034BF012000205DF808FB00BF4FEA410CF4
:100B30007FEA6C5C02D150EA013C0AD14FEA430CD7
:100B40007FEA6C5C02D152EA033C02D14FF0000014
:100B500070474FF0010070474FEA410212F5001252
:100B600015D211D56FF47873B3EB625212D94FEAF4
:100B7000C12343F0004343EA505311F0004F23FADE
:100B800002F018BF404270474FF00000704750EA33
:100B9000013005D111F0004008BF6FF000407047F0
:100BA0004FF00000704700BF4FEA4102B2F1E0434E
:100BB00024BFB3F5001CDCF1FE5C0DD901F0004C44
:100BC0004FEAC0024CEA5070B2F1004F40EB830094
:100BD00008BF20F00100704711F0804F21D113F1C0
:100BE0003872BCBF01F00040704741F480114FEAF9
:100BF0005252C2F11802C2F1200C10FA0CF320FA82
:100C000002F018BF40F001004FEAC1234FEAD3239E
:100C100003FA0CFC40EA0C0023FA02F34FEA430308
:100C2000CCE77FEA625307D150EA01331EBF4FF091
:100C3000FE4040F44000704701F0004040F0FE40AC
:100C400040F40000704700BF80B485B000AF78600A
:100C500039600223FB733A687B681968FB7B0B449D
:100C60009B08D21A7B681B681A447B681A607B68F1
:100C70001A68FB7B13449B0818461437BD465DF881
:100C8000047B704780B485B000AFF860B96013464C
:100C9000FB80FB680022DA60FB68BA681A61FB68B7
:100CA000FA889A82FB6840F6C4129A80FB68002298
:100CB000DA80FB6800229A60FB6800229A75FB6864
:100CC0000022DA75FB6800229A6100BF1437BD4626
:100CD0005DF8047B704780B582B000AF78600B464A
:100CE0007B807B88002B10D07B884FF4617264215D
:100CF000184604F0A4F803469AB27B68DA807B6851
:100D00004FF47A529A80012307E07B680022DA8050
:100D10007B6840F6C4129A80002318460837BD4607
:100D200080BD80B584B000AF786004F017FFF86034
:100D30007B689B68FA68D31A7A68D28893420AD98A
:100D40007B68FA689A607B68DB68002B14BF01231C
:100D50000023DBB200E0002318461037BD4680BDFB
:100D600080B586B000AF786004F0F8FE02467B687C
:100D70009B699A42C0F0878004F0F0FE034603F1BD
:100D800014027B689A610023FB757B681A697B6893
:100D90009B8A1946104606F081FD0346012B01D1BE
:100DA000C823FB757B68DB7D002B0BD0FB7D1946D0
:100DB0007868FFF749FF0346312B0EDC7B68002281
:100DC000DA750AE0FB7D19467868FFF73DFF0346B8
:100DD000642B02DD7B680122DA757B68DB7D002BEA
:100DE0002FD004F0BBFE02467B68DB68D31AFB60A1
:100DF0007B68DB68002B05D07B689B881A46FB6804
:100E0000934205D904F0AAFE02467B68DA603AE014
:100E1000FB6840F2DC52934235D97B689B7D002B06
:100E200001D0002330E07B68DB88002B04D0786899
:100E3000FFF777FF034627E07B6801229A750223BC
:100E400022E07B68DB68002B03D07B689B7D002B56
:100E500007D07B680022DA607B6800229A75002345
:100E600012E004F07BFE02467B68DB68D31A3B612C
:100E70007B680022DA607B689B881A463B69934254
:100E800001D2012300E0002318461837BD4680BD7B
:100E900080B582B000AF87ED010A97ED010A0CF032
:100EA0007BFCF0EE407AB0EE670A0837BD4680BDA5
:100EB00080B582B000AF786039607B6839681846C9
:100EC0000AF08DFF00BF0837BD4680BD80B582B0F7
:100ED00000AF78600B46FB707B68FA7811461846C5
:100EE0000AF09BFF00BF0837BD4680BD80B586B0C5
:100EF00002AFF8607B600B467B8113463B81F8684C
:100F00003A8979893B7E00937B680BF00DF80346A4
:100F100018461037BD4680BD80B586B002AFF86078
:100F20007B600B467B8113463B81F8683A8979895F
:100F30003B7E00937B680BF019F803461846103788
:100F4000BD4680BD80B582B000AF786039607B68F7
:100F5000396818460BF026F8034618460837BD4690
:100F600080BD80B582B000AF786039607B68396839
:100F700018460BF02BF8034618460837BD4680BDCF
:100F800080B483B000AF78607B6893F93230DBB215
:100F900018460C37BD465DF8047B704780B483B0BB
:100FA00000AF78607B6893F93230DAB27B6893F9EE
:100FB0004230DBB2D31ADBB25BB218460C37BD4607
:100FC0005DF8047B704780B582B000AF786009F0AF
:100FD000C9F8034618460837BD4680BD80B582B0C3
:100FE00000AF786009F0D8F8034618460837BD46C8
:100FF00080BD80B582B000AF786009F087FD034600
:1010000018460837BD4680BD80B582B000AF786015
:101010000B46FB70FB78184609F0D8F800BF08377C
:10102000BD4680BD80B584B000AFF860084611466B
:101030001A4603467B810B463B811346FB71FA79C6
:1010400039897B89184609F02DF900BF1037BD4654
:1010500080BD80B584B000AFF860084611461A46DE
:1010600003467B810B463B811346FB803B7EFA881F
:101070003989788909F094F900BF1037BD4680BDE1
:1010800080B584B000AFF860084611461A460346A2
:101090007B810B463B811346FB803B7EFA88398976
:1010A000788909F0D7F900BF1037BD4680BD90B5EB
:1010B00087B002AFF860084611461A4603467B81A6
:1010C0000B463B811346FB803C8CFA883989788932
:1010D00097F824300093234609F016FA00BF14371E
:1010E000BD4690BD90B587B002AFF8600846114686
:1010F0001A4603467B810B463B811346FB803C8CA2
:10110000FA883989788997F828300193BB8C009345
:10111000234609F07DFB00BF1437BD4690BD90B556
:1011200087B002AFF860084611461A4603467B8135
:101130000B463B811346FB803C8CFA8839897889C1
:1011400097F828300193BB8C0093234609F005FCE7
:1011500000BF1437BD4690BD80B588B004AFF860BD
:101160007B600B467B8113463B813A8B39897889BA
:1011700097F82430029397F820300193BB8B0093AB
:1011800013467A6809F03FFC00BF1037BD4680BDAA
:1011900080B483B000AF7860044A7B681A607B68D3
:1011A00018460C37BD465DF8047B704748080108B7
:1011B00080B483B000AF7860044A7B681A607B68B3
:1011C00018460C37BD465DF8047B70474808010897
:1011D00080B582B000AF78607868FFF7E9FF04213E
:1011E00078680BF0BAFC7B6818460837BD4680BDAE
:1011F000B0B582B000AF78607B681846FFF7C8FFD3
:10120000174A7B681A607B68164A1C1D15460FCD6D
:101210000FC495E8070084E807007B68124A03F1D1
:10122000200415460FCD0FC495E8070084E8070099
:101230007B680E4A03F13C0415460FCD0FC40FCD59
:101240000FC495E80F0084E80F007B68084ADA664F
:101250007B68084A1A677B6818460837BD46B0BDE8
:101260005C440108B8FF000818000108A00001084C
:1012700078FF000888FF0008B0B582B000AF786042
:101280007B681846FFF784FF174A7B681A607B6803
:10129000164A1C1D15460FCD0FC495E8070084E8BB
:1012A00007007B68124A03F1200415460FCD0FC4D6
:1012B00095E8070084E807007B680E4A03F13C04C8
:1012C00015460FCD0FC40FCD0FC495E80F0084E86D
:1012D0000F007B68084ADA667B68084A1A677B68F1
:1012E00018460837BD46B0BD28440108540101081E
:1012F000EC010108B8020108D0000108F40001085F
:1013000080B483B000AF78600B46FB70FB78012B94
:1013100003D17B68064ADA6403E07B68054ADA6435
:1013200000BF00BF0C37BD465DF8047B704700BFAF
:101330000801002094000020B0B592B004AF78609E
:10134000084611461A460346FB700B46BB7013460F
:101350003B80FB783B74BB787B740023BB7300231A
:101360007B7300233B733B88DBB24E33DBB2BB7431
:1013700007F10C03184604F0ABFAB86207F10C034E
:101380001946B86A04F07CF93A88BB78194678683F
:1013900000F0C2FC786800F059FD01233B7407F1AE
:1013A0000C03184604F094FAB86207F10C031946CE
:1013B000B86A04F065F9FB7B013BDAB2BB781946E9
:1013C000786800F0BFFE034687F82730BB78013B02
:1013D0007A68134493F8882097F82730134487F8E5
:1013E0003730BB78022B09D13B8803F00303002B75
:1013F00004D197F83730013387F8373097F8372022
:10140000AE4BA3FB0213D21A520813449B0887F871
:10141000363097F83720A94BA3FB0213D11A49089D
:101420000B4499080B46DB005B1AD31ADBB2002B86
:1014300004D097F83630013387F8363097F83630D5
:10144000042B02D8052387F836307B681846FFF74F
:10145000C5FD03461A467B68B3F86E30D31A9BB2BB
:101460000A3BBB84BA8C97F83630013B92FBF3F30E
:101470007B847B681846FFF7A6FD03461A467B6807
:10148000B3F86830D31A3B843A8C8C4BA3FB02131D
:10149000D21A520813449B08FB837B6804338849A3
:1014A0001846FFF705FD7B6804331846FFF776FD05
:1014B00003467B7797F82730C3F10103DBB287F847
:1014C0002730002387F83530002387F834307B68D5
:1014D000DA6C7B68DB6C1B6828331B681046984706
:1014E00003463B773B7F87F833303B7F002B04D0AC
:1014F0003B7FC3F1070387F8333097F8273087F82D
:101500003230CAE097F93230002B40F3AA8097F9C5
:10151000322007F108036B4918460EF0EBF87B68A0
:10152000B3F8682097F834309BB2F98B11FB03F3C2
:101530009BB213443B867B68B3F86E2097F8353036
:101540009BB2798C11FB03F39BB213447B83012381
:1015500087F82F307B681846FFF74BFD0346012BB9
:1015600007D997F8342097F833309A4201D10123F4
:1015700000E00023002B02D0022387F82F3097F9D8
:101580003220FB789A4231D17B68043307F108029C
:1015900011461846FFF7D6FC03467B7578683B8EEC
:1015A000033B99B27B7F9BB27A8BD31A9BB20633F3
:1015B0009CB27B7D9BB206339DB27B7F9BB2023394
:1015C0009BB297F82F2002920522019200932B469E
:1015D0002246FFF7A4FD7B68181D07F108037A8BEC
:1015E000398E00240094FFF781FC3AE07B68181DD7
:1015F00007F108047A8B398E97F82F300093234631
:10160000FFF774FC03467B7697F8342097F8333065
:101610009A4226D17B681846FFF7EBFC0346012B64
:101620000CBF01230023DBB2002B1AD03B8EFB82C0
:1016300011E078687B7F9BB27A8BD31A9BB205331B
:101640009AB27B7F9BB2398E00240094FFF718FD7D
:101650003B8E02333B86FA8A398E7B7E0B449A425C
:10166000E7DB97F83430013387F8343097F83430BB
:10167000062B8CBF01230023DBB2002B07D00023F5
:1016800087F8343097F83530013387F8353097F8DC
:1016900032300133DBB287F8323097F93230BA7822
:1016A000013A79680A4492F8882093427FF72AAF7A
:1016B00000BF00BF3837BD46B0BD00BF25499224EA
:1016C00020090108E802010880B584B000AF786005
:1016D0007B68DB6C002B02D17B680A4ADA647B688A
:1016E000DA6C7B68DB6C1B681C331B681046984700
:1016F000F860F968786800F09BFD00BF1037BD46C0
:1017000080BD00BF9400002080B584B000AF786039
:101710007B68DB6C002B02D17B680A4ADA647B6849
:10172000DA6C7B68DB6C1B6820331B6810469847BB
:10173000F860F968786800F07BFD00BF1037BD469F
:1017400080BD00BF94000020B0B588B004AF7860C1
:101750000B46FB7078687B68B3F87E107B68B3F843
:1017600080207B6893F883301D467B6893F8823035
:1017700001339BB2012402940324019400932B466D
:10178000FFF7B0FC7B6893F88330093B5B10BB81AB
:101790007B68B3F87E20BB891344BB8178687B6883
:1017A000B3F88030053B9AB2B98901230293022332
:1017B0000193052300930923FFF7B1FC78687B6848
:1017C000B3F88030033B9AB2B98901230193032314
:1017D00000930923FFF76BFCF8787B6893F882305D
:1017E000009300236422002103F000FB03467B8169
:1017F0007B89002B1ED078687B68B3F87E3002337B
:1018000099B27B68B3F880307A6892F882201344EA
:101810009AB27B89D31A9AB27B6893F88330063BDD
:101820009CB201230293022301937B8900932346F8
:10183000FFF775FC0123FB732EE07B6893F8823081
:101840001A46FB7B02FB03F3174A82FB031252107A
:10185000DB17D31A3B813A897B899A4219D278687F
:101860007B68B3F87E30013399B27B68B3F880307F
:101870007A6892F8822013449AB23B89D31A9AB2BA
:101880007B6893F88330023B9BB200240094FFF7FF
:10189000E0FBFB7B0133FB73FB7B042BCDD900BF4B
:1018A00000BF1037BD46B0BD6766666690B591B0A3
:1018B00004AFF860B9607A60FB68043340491846A9
:1018C000FFF7F6FAFB6804331846FFF759FB0346A7
:1018D000BB8507F11C031A46B968F86800F06AFC7A
:1018E00007F114031A467968F86800F063FCFB6896
:1018F000043307F11C0211461846FFF723FB034689
:101900007B85FB68043307F11C0211461846FFF77C
:1019100019FB03461A467B8D13449BB214333B8557
:10192000FB68B3F874303033FB843B8D5B083B8538
:101930000023FB85FA8C3B8D9A4203D9FA8C3B8DB0
:10194000D31AFB85FB68181DFB68B3F87620BB8DA6
:1019500013449BB22B339AB207F11C03F98D012477
:101960000094FFF7D9FAFB68181DFA8D7B8D13449C
:101970009BB2143399B2FB68B3F87620BB8D134445
:101980009BB22B339AB207F1140301240094FFF7A2
:10199000C3FAF868FB68B3F87410FB68B3F87620F4
:1019A00000230393012302932623019360230093D2
:1019B000044BFFF7D1FB00BF3437BD4690BD00BFDD
:1019C000E41401084C030108B0B58AB004AF786094
:1019D0000B46FB70FB781E2B01D91E23FB70786829
:1019E0007B68B3F878107B68B3F87A207B6893F84B
:1019F0007C301C467B6893F87C301D4601230393A2
:101A00000023029301950094C14BFFF7A5FBFB78DF
:101A10001846FEF787FDBCA3D3E90023FEF7ECFDD3
:101A200002460B46104619464FF00002B94BFEF72E
:101A30000DFF02460B4643EC172BB0EE470AF0EEC3
:101A4000670A0BF095FB53EC102B10461946FFF775
:101A5000ABF803463B610023FB8243E17B6893F8CC
:101A60007C301A46FB8A03FB02F2FB8AF98A01FBEF
:101A700003F3D31A184600F0D7FF53EC102B10468F
:101A80001946FFF791F80346FB60FB780F2B00F235
:101A90008B807B6893F87C3007EE903AF8EE677A9B
:101AA000F0EE006A87EEA67AD7ED037A77EE677AD2
:101AB000B0EE670AFFF7ECF9F0EE407AFCEEE77A59
:101AC00017EE903A7B817B6893F87C3007EE903A72
:101AD000F8EE677AF0EE006A87EEA67AD7ED036A31
:101AE000D7ED047A66EEA77A77EE277AB0EE670A2A
:101AF000FFF7CEF9F0EE407AFCEEE77A17EE903A77
:101B00003B8178687B68B3F878107B68B3F87A20FB
:101B1000FB8A13449AB23B8900240094FFF799FA98
:101B200078687B68B3F878203B89134499B27B6866
:101B3000B3F87A20FB8A13449AB20123FFF772FAB2
:101B4000FA8A7B6893F87C301946FB8ACB1A9A4252
:101B500080F2C58078687B68B3F878107B68B3F84A
:101B60007A307A6892F87C2013449AB2FB8AD31AAE
:101B70009AB23B8900240094FFF76BFA78687B687F
:101B8000B3F878203B89134499B27B68B3F87A3074
:101B90007A6892F87C2013449AB2FB8AD31A9AB2DC
:101BA0000123FFF73FFA9AE07B6893F87C3007EE59
:101BB000903AF8EE677AF0EE006A87EEA67AD7EDF3
:101BC000036AD7ED047A66EEA77A77EE677AB0EE0D
:101BD000670AFFF75DF9F0EE407AFCEEE77A17EE60
:101BE000903A7B817B6893F87C3007EE903AF8EE70
:101BF000677AF0EE006A87EEA67AD7ED037A77EE81
:101C0000277AB0EE670AFFF743F9F0EE407AFCEE70
:101C1000E77A17EE903A3B8178687B68B3F87820D2
:101C20007B89134499B27B68B3F87A20FB8A13440A
:101C30009AB27B6893F87C301C467B89E31A9BB28E
:101C400000240094FFF705FA78687B68B3F87820E1
:101C50007B89134499B27B68B3F87A20FB8A1344DA
:101C60009AB20123FFF7DEF9FA8A7B6893F87C3099
:101C70001946FB8ACB1A9A4231DA78687B68B3F846
:101C800078207B89134499B27B68B3F87A307A68FC
:101C900092F87C2013449AB2FB8AD31A9AB27B68DA
:101CA00093F87C301C467B89E31A9BB20024009495
:101CB000FFF7CFF978687B68B3F878207B89134405
:101CC00099B27B68B3F87A307A6892F87C20134432
:101CD0009AB2FB8AD31A9AB20123FFF7A3F9FB8ABF
:101CE0000133FB827B6893F87C305B08DBB21A46D9
:101CF000FB8A93427FF6B2AE00BF00BF1837BD46E5
:101D0000B0BD00BFAFF30080182D4454FB21094043
:101D10002005010800002E4090B589B002AF786020
:101D20000B46FB7013463B803A8807F10803444991
:101D300018460DF0DFFC7B68043342491846FFF774
:101D4000B7F87B68043307F1080211461846FFF71D
:101D5000F9F80346FB827B6804333B491846FFF7DA
:101D6000A7F87B68DA6C7B68DB6C1B6810331B6838
:101D7000F9781046984738617B680433396918460A
:101D8000FFF7EFF803461A46FB8A1344FB82FB8AEF
:101D90001433FB827B681846FFF715F903461A4691
:101DA0007B68B3F86830D21AFB8AD31A5B10FB81C8
:101DB0007B68B3F86820FB891344FB8178687B68F3
:101DC000B3F86A3005339AB2FB8AF989012400948A
:101DD000FFF73FF978687B68B3F86A3006339AB248
:101DE000FB8AF98901240094FFF733F97B68181DF9
:101DF0007B68B3F86A20F989012300933B69FFF7F8
:101E00008BF80346FB82FA8AFB8913449BB2143396
:101E1000FB817B6804330B491846FFF749F87B6860
:101E2000181D7B68B3F86A2007F10803F9890124BB
:101E30000094FFF75BF800BF1C37BD4690BD00BFA4
:101E4000EC0201082009010820230108F0B589B03F
:101E500002AF78607B68043337491846FFF728F8EB
:101E60007B681846FFF7AFF803461A467B68B3F85D
:101E70006830D31A7B827A8A304BA3FB0213D21AC2
:101E8000520813449B083B827B68DA6C7B68DB6CEE
:101E90001B6828331B68104698470346FB730023D2
:101EA000FB7541E0FA7DFB7B1344BB75BB7D062BC4
:101EB00001D90023BB7501237B757B681846FFF7AA
:101EC00098F80346012B04D9BB7D002B01D10123D7
:101ED00000E00023002B01D002237B757B681C1DD2
:101EE0007B68B3F86820FB7D9BB2398A11FB03F352
:101EF0009BB213449DB27B68B3F86C607B68DA6C6C
:101F00007B68DB6C1B6808331B68B97D10469847FB
:101F100002467B7D00931346324629462046FEF753
:101F2000FBFFFB7D0133FB75FB7D062BBAD900BFA0
:101F300000BF1C37BD46F0BD20230108254992246F
:101F400090B591B002AF7860084611461A46034634
:101F5000FB700B46BB7013467B70012387F837304C
:101F60007B681846FFF745F80346012B04D97B78B8
:101F7000002B01D1012300E00023002B02D002231B
:101F800087F83730FA7807F124036A4918460DF0CC
:101F9000B1FB7B68043368491846FEF789FF7B680C
:101FA000043302211846FEF791FF7B68B3F86830CE
:101FB0000A3B7B867B68043307F1240211461846EE
:101FC000FEF7C0FF03463B867A8E3B8ED31A5B102A
:101FD000BB863A8E7B8E9A4201D90023BB867B68F2
:101FE000181D7B68B3F8722007F12404B98E97F8A6
:101FF000373000932346FEF779FF7B68D96C7B6806
:10200000DB6C1B6814331B6807F10C00BA78984727
:1020100007F10C03494918460AF076FE7B68043341
:1020200047491846FEF744FF7B68043302211846EF
:10203000FEF74CFF7B6804331846FEF7AFFF0346FC
:1020400087F82F307B681C1D07F10C0318460AF037
:1020500071FE034619462046FEF783FF03463B8682
:102060007A8E3B8ED31A5B10BB863A8E7B8E9A4259
:1020700001D90023BB867B68B3F8722097F82F3014
:102080009BB25B009BB21344BB857B681C1D07F1B0
:102090000C0318460AF04EFEBA8DB98E97F8373009
:1020A000009303462046FEF737FF7B680433012187
:1020B0001846FEF70BFF7B6804331846FEF76EFFE9
:1020C000034687F82F307B68DA6C7B68DB6C1B6813
:1020D0000C331B68797810469847B8627B680433E4
:1020E000B96A1846FEF73DFF03463B867A8E3B8E63
:1020F000D31A5B10BB863A8E7B8E9A4201D900239D
:10210000BB867B68181D97F82F309AB2BB8D13449D
:102110009BB204339AB2B98E97F837300093BB6AFA
:10212000FEF7FAFE07F10C0318460AF07DFD3C3776
:10213000BD4690BDF0020108AC100108F402010890
:10214000E414010880B584B000AF78600B46FB70E2
:102150001346BB70BB78062B01D90623BB70FB78F6
:102160000C2B01D90C23FB700723FB737B68DA6C03
:102170007B68DB6C1B6828331B6810469847034656
:10218000BB73BA7BBB789A4205D8BA78BB7BD31AAB
:10219000DBB2FB7309E0FA7BBB781344DBB2FB7361
:1021A000FA7BBB7BD31ADBB2FB73FB7B1846103781
:1021B000BD4680BD80B586B000AFF860B9607A607A
:1021C000BB681E33BB60BB68164AA2FB03235B09D6
:1021D000BB60B968134BA3FB01235A0913461B01CB
:1021E0009B1A9B00CA1A1346FB75BB680D4AA2FBDB
:1021F00003235B09BB60B9680B4BA3FB01231A09DE
:1022000013465B001344DB00CA1A1346BB75BA7D44
:10221000FB7D064978680DF06DFA00BF1837BD46A2
:1022200080BD00BF89888888ABAAAAAAF8020108E5
:1022300080B586B002AF786039607B68043314499A
:102240001846FEF735FE7B68043339681846FEF7FA
:1022500088FE0346FB81FB891433FB817B681846AB
:10226000FEF7B1FE03461A46FB89D31A5B10BB8109
:102270007B68181D7B68B3F86A20B9890123009335
:102280003B68FEF749FE00BF1037BD4680BD00BF6A
:102290002023010880B586B000AF78607B680433E6
:1022A00068491846FEF704FE7B6804331846FEF7BB
:1022B00067FE03460633FB827B68B3F88420FB8A03
:1022C00013449AB27B68A3F856207B68B3F8562073
:1022D0007B68A3F852207B6804335B491846FEF7FD
:1022E00031FE03460A33BB827B68B3F88630BA8A74
:1022F0009A4208D97B680A22A3F850207B686022A2
:10230000A3F8542015E07B68B3F886301A46BB8AE0
:10231000D31A5B109AB27B68A3F850207B68B3F89D
:102320005020BB8A5B089BB213449AB27B68A3F827
:1023300054207B68B3F88420FB8A13449AB2FB8A4A
:1023400013449AB27B68A3F85E207B68B3F85E20E2
:102350007B68A3F85A207B6804333C491846FEF793
:10236000F1FD0346BB827B68DA6C7B68DB6C1B6823
:1023700018331B681046984738617B680433396905
:102380001846FEF7EEFD0346FB81BA8AFB8913442B
:102390007A68B2F88620934208DD7B680A22A3F8A7
:1023A00058207B68BA8AA3F85C2017E07B68B3F8F2
:1023B00086301A46BB8AD21AFB89D31A5B109AB2AE
:1023C0007B68A3F858207B68B3F85820BB8A134475
:1023D0009BB20A339AB27B68A3F85C207B68B3F89F
:1023E0008420FB8A194649000B449BB213449AB2DD
:1023F0007B68A3F862207B68043315491846FEF712
:10240000A1FD0346BB827B68B3F886301A46BB8ABF
:10241000D31A5B109AB27B68A3F860207B68B3F88C
:102420008420FB8A9B009BB213449AB27B68A3F87A
:1024300066207B680022A3F8642000BF1837BD46E1
:1024400080BD00BFE4140108040301080C03010867
:1024500010030108B0B590B004AFF860B96013463E
:10246000FB71FB6803211846FEF7CEFDF868FB6898
:10247000B3F88410FB68B3F88630103B9CB2FB685D
:10248000B3F86620FB68B3F88430D31A9BB20533E7
:102490009BB20122029205220192009323460A4632
:1024A0000821FEF71FFEFB68043390491846FEF72B
:1024B000FFFCFB6804331846FEF770FD034687F8FF
:1024C0002D30002387F82C30BB689B781A4607F123
:1024D0001003874918460DF00DF9FB68043307F126
:1024E000100211461846FEF72DFD03467B85FA794A
:1024F00097F82C309A4224D1F86897F82C20FB6882
:10250000143233F8221097F82C30FA689B001344E9
:10251000B3F8522097F82D309BB2D31A9BB20633F2
:102520009AB27B8D06339CB297F82D309BB2023362
:102530009BB2012502950325019500932346FEF7E2
:10254000EEFDFA7997F82C309A4214BF012300234C
:10255000DBB287F82930FB68181D97F82C20FB6840
:10256000143233F8221097F82C30FA689B00134489
:10257000B3F8522007F1100497F82930009323464E
:10258000FEF7B4FCFB68181D97F82C20FB6814328A
:1025900033F822207B8D13449BB2043399B2FB683D
:1025A000B3F8522001230093524BFEF79FFC97F89B
:1025B0002C30013387F82C30BB685B781A4607F162
:1025C00010034B4918460DF095F8FA7997F82C301E
:1025D0009A4226D1F86897F82C20FB68143233F819
:1025E000221097F82C30FA689B001344B3F852205D
:1025F00097F82D309BB2D31A9BB206339CB27B8DD9
:1026000006339DB297F82D309BB202339BB297F8F8
:10261000292002920322019200932B462246FEF7C4
:102620007EFDFA7997F82C309A4214BF01230023DB
:10263000DBB287F82930FB68181D97F82C20FB685F
:10264000143233F8221097F82C30FA689B001344A8
:10265000B3F8522007F1100497F82930009323466D
:10266000FEF744FC97F82C30013387F82C30BB6818
:102670001B791A4607F110031D4918460DF03AF868
:10268000FB68043307F1100211461846FEF75AFCA6
:102690000346FB84FA7997F82C309A422CD1F868DB
:1026A00097F82C20FB68143233F8221097F82C305E
:1026B000FA689B001344B3F8522097F82D309BB270
:1026C000D31A9BB206339AB2FB8C06339CB297F8AE
:1026D0002D309BB202339BB2012502950325019553
:1026E00000932346FEF71BFD06E000BFE41401083B
:1026F0001803010820030108FA7997F82C309A4250
:1027000014BF01230023DBB287F82930FB68181DB2
:1027100097F82C20FB68143233F8221097F82C30ED
:10272000FA689B001344B3F8522007F1100497F89D
:10273000293000932346FEF7D9FB97F82C3001335C
:1027400087F82C30FB68D86CFB68DB6C1B68103397
:102750001B68BA685279114698473862FB6804339F
:10276000396A1846FEF7FDFB0346FB84FA7997F8B1
:102770002C309A4224D1F86897F82C20FB68143248
:1027800033F8221097F82C30FA689B001344B3F802
:10279000522097F82D309BB2D31A9BB206339AB2CF
:1027A000FB8C06339CB297F82D309BB202339BB260
:1027B000012502950325019500932346FEF7AFFC02
:1027C000FA7997F82C309A4214BF01230023DBB228
:1027D00087F82930FB68181D97F82C20FB68143205
:1027E00033F8221097F82C30FA689B001344B3F8A2
:1027F000522097F8293000933B6AFEF78DFB97F83B
:102800002C30013387F82C30BB689B7903F2B2720D
:1028100007F11003744918460CF06CFFFB68043391
:1028200007F1100211461846FEF78CFB0346FB83A6
:10283000FA7997F82C309A4224D1F86897F82C202E
:10284000FB68143233F8221097F82C30FA689B009A
:102850001344B3F8522097F82D309BB2D31A9BB291
:1028600006339AB2FB8B06339CB297F82D309BB29D
:1028700002339BB20125029503250195009323465F
:10288000FEF74DFCFA7997F82C309A4214BF0123D9
:102890000023DBB287F82930FB68181D97F82C203D
:1028A000FB68143233F8221097F82C30FA689B003A
:1028B0001344B3F8522007F1100497F8293000931D
:1028C0002346FEF713FB97F82C30013387F82C30A2
:1028D000FB681C1DFB68DA6CFB68DB6C1B6824332F
:1028E0001B6810469847034619462046FEF739FBF9
:1028F0000346BB830023FB85FB68B3F88630BA8BA5
:102900009A4207D8FB68B3F886301A46BB8BD31AB5
:102910005B10FB85FA7997F82C309A421FD1F86842
:1029200097F82C30FA689B001344B3F8522097F8BC
:102930002D309BB2D31A9BB206339AB2BB8B0633AF
:102940009CB297F82D309BB202339BB2F98D0125D2
:1029500002950325019500932346FEF7E0FBFA79E3
:1029600097F82C309A4214BF01230023DBB287F87A
:102970002930FB681C1D97F82C30FA689B00134423
:10298000B3F85250FB68DA6CFB68DB6C1B682433CD
:102990001B68104698470246F98D97F82930009336
:1029A00013462A462046FEF7B7FAF868FB681B680C
:1029B0001C331C68FB68B3F88410FB68B3F88650BE
:1029C000FB68B3F86620FB68B3F88430D31A9BB277
:1029D0000A339BB200932B460A460021A04700BF52
:1029E0003037BD46B0BD00BFEC02010880B485B0F1
:1029F00000AF786039603B685B79013B7A681344CB
:102A000093F88830BB733B681B790133FB73FA7B07
:102A1000BB7B9A4201D90123FB73FB7B1846143719
:102A2000BD465DF8047B704780B582B000AF78602A
:102A30007868FDF777FD02460B4643EC102B0AF051
:102A4000D3F9B0EE407AF0EE607AB0EE470AF0EEDD
:102A5000670A0837BD4680BD80B582B000AF786098
:102A6000054A7B681A607B681846FEF7A1FB7B6805
:102A700018460837BD4680BD2844010880B582B09D
:102A800000AF78607868FFF7E7FF742178680AF094
:102A900064F87B6818460837BD4680BD80B582B0B3
:102AA00000AF7860054A7B681A607B681846FEF7BD
:102AB0007FFB7B6818460837BD4680BD5C44010833
:102AC00080B582B000AF78607868FFF7E7FF7421C7
:102AD00078680AF042F87B6818460837BD4680BD22
:102AE00080B582B000AF786039607B68012B0AD175
:102AF0003B684FF6FF72934205D10C48FEF778FB16
:102B00000B48FEF7B9FB7B68002B0AD13B684FF6F8
:102B1000FF72934205D10648FFF79EFF0348FFF777
:102B2000BDFF00BF0837BD4680BD00BF9400002038
:102B30000801002080B500AF4FF6FF710120FFF7BC
:102B4000CFFF80BD80B500AF4FF6FF710020FFF7CB
:102B5000C7FF80BD80B582B000AF78607B68184643
:102B600009F01EF97B6818460837BD4680BD000095
:102B700080B582B000AF78607B6804331846FFF7F9
:102B8000E9FF044A7B681A607B6818460837BD462F
:102B900080BD00BFF408010880B483B000AF786046
:102BA000044A7B681A607B6818460C37BD465DF89E
:102BB000047B7047F408010880B582B000AF7860EC
:102BC0007868FFF7E9FF4C21786809F0C6FF7B6859
:102BD00018460837BD4680BD80B483B000AF78602A
:102BE0000B46FB701346BB7000BF0C37BD465DF84B
:102BF000047B704780B483B000AF786000BF0C37AF
:102C0000BD465DF8047B704780B483B000AF786048
:102C100000BF0C37BD465DF8047B704780B483B0BD
:102C200000AF786000BF0C37BD465DF8047B70478D
:102C300080B483B000AF786000BF0C37BD465DF84C
:102C4000047B704780B485B000AFF8600846114639
:102C50001A4603467B810B463B811346FB8000BF2F
:102C60001437BD465DF8047B704780B483B000AF75
:102C700078600B46FB701346BB7000BF0C37BD4637
:102C80005DF8047B704780B582B000AF786007F0D4
:102C900065FF034618460837BD4680BD80B483B043
:102CA00000AF7860002318460C37BD465DF8047B02
:102CB0007047000080B582B000AF78607B6818462E
:102CC000FFF756FF034A7B681A607B68184608378F
:102CD000BD4680BDC008010880B582B000AF7860F5
:102CE0000B46FB701346BB70BA78FB78114618464A
:102CF00008F038FD00BF0837BD4680BD80B582B002
:102D000000AF786008F028FE00BF0837BD4680BDE0
:102D100080B582B000AF786008F02AFE00BF0837A7
:102D2000BD4680BD80B582B000AF786007F0EEFE92
:102D30000346012B8CBF01230023DBB2002B02D002
:102D400008F0AAFD01E008F031FD00BF0837BD46DC
:102D500080BD80B582B000AF786008F015FE00BF7E
:102D60000837BD4680BD80B584B000AFF860084626
:102D700011461A4603467B810B463B811346FB8076
:102D80003B8BFA883989788908F03CFE00BF103700
:102D9000BD4680BD80B582B000AF786008F0FAFE15
:102DA000034618460837BD4680BD80B582B000AFE7
:102DB00078600B46FB70FB78002B01D0012300E00C
:102DC00000231A464FF400614FF0904004F07EFD5E
:102DD00000BF0837BD4680BD80B582B000AF7860C7
:102DE000054A7B681A607B681846FFF7D5FE7B684A
:102DF00018460837BD4680BDC008010880B582B0BE
:102E000000AF78607868FFF7E7FF4C21786809F039
:102E1000A4FE7B6818460837BD4680BD80B582B0E9
:102E200000AF78607B681846FFF744FF2F4A7B6845
:102E30001A607B680022DA647B68503300221A60D3
:102E40005A609A60DA601A615A617B68F022A3F8CE
:102E500068207B683222A3F86A207B686E22A3F880
:102E60006C207B68A522A3F86E207B680A22A3F859
:102E700070207B68FA22A3F872207B683722A3F8BF
:102E800074207B681422A3F876207B684122A3F883
:102E900078207B684FF4BE72A3F87A207B685022BA
:102EA00083F87C207B680522A3F87E207B684FF4A2
:102EB000B472A3F880207B68642283F882207B6848
:102EC0001E2283F883207B681422A3F884207B6869
:102ED000C822A3F886207B68054A883307CA83E89E
:102EE00007007B6818460837BD4680BD8C0801087E
:102EF000240301080000000080B582B000AF7860B4
:102F00001F4A7B681A607B6800225A607B68002237
:102F10009A607B680022DA607B681A4A1A617B68D3
:102F2000194A5A617B68A0221A837B6842F63022D4
:102F3000DA617B68154A1A627B68154A5A627B68B7
:102F4000144A9A627B681B6A1846FDF7FDFA0AA3C9
:102F5000D3E90023FDF750FB02460B461046194605
:102F6000FDF722FE02467B68DA627B681846083766
:102F7000BD4680BDAFF3008085EB51B81EB556400D
:102F80007C080108C06E5E4263F8164235FA8E3C3A
:102F9000E12E6542DB0FC94080B483B000AF78609A
:102FA000044A7B681A607B6818460C37BD465DF89A
:102FB000047B70477C08010880B582B000AF786060
:102FC0007868FFF7E9FF3021786809F0C6FD7B6873
:102FD00018460837BD4680BD80B483B000AF786026
:102FE0007B6818460C37BD465DF8047B704780B59A
:102FF00082B000AF78603960386801F09FFF034607
:1030000018460837BD4680BD80B582B000AF7860F5
:103010003960386802F048F8034618460837BD465C
:1030200080BD80B584B000AFF8607B600B46FB725A
:103030001346BB72B97AFB7A7A68184602F0C2F876
:10304000034618461037BD4680BD80B582B000AF3C
:10305000786002F023FA034618460837BD4680BD63
:1030600080B582B000AF78600B46FB70FB781846E5
:1030700002F0C2F9034618460837BD4680BD80B548
:1030800082B000AF786002F0E3F9034618460837D3
:10309000BD4680BD80B584B000AFF860B96013460E
:1030A000FB80FB68FA88B9681846FDF7EBFDFB6802
:1030B00018461037BD4680BD80B582B000AF78603D
:1030C0000B467B807B687A8811461846FDF703FE25
:1030D000034618460837BD4680BD80B582B000AFB4
:1030E00078607B681846FDF73BFE034618460837B4
:1030F000BD4680BD80B582B000AF0023FB710AE001
:103100004FF40061144804F0F9FBC82002F032FDCE
:10311000FB790133FB71FB79052BF1D900224FF4C8
:1031200000610D4804F0D2FB0C4B9B6D0B4A43F041
:1031300080539365094B9B6D03F080533B603B6864
:10314000074B1F229A61012005F016FA05F034FAA8
:1031500000BF0837BD4680BD000400480010024093
:103160000070004080B500AF084B00221A70074B7A
:1031700000225A70054B00229A70044B082200214D
:103180000348FFF74EFF00BF80BD00BF7C02002058
:103190001002002080B584B000AF78600023FB608F
:1031A00012E00E4B1B6840F6FF72934294BF01235E
:1031B0000023DBB2002B01D001230AE0012002F042
:1031C000D9FCFB680133FB60FA687B689A42E8D35C
:1031D000002318461037BD4680BD00BF0000002008
:1031E00080B584B002AF78607868FFF7D3FF0346FC
:1031F000002B1BD0104B1B6840F6C4124FF400612B
:10320000184601F01CFE03461A460B4B1A600A4B87
:103210001B68184664230093002340F6C4124FF441
:10322000006101F0E3FD0346DBB200E00023184635
:103230000837BD4680BD00BF0000002080B584B0C7
:1032400000AF3F4B41F288321A603E4803F020F84D
:103250003D4800F095FDF8603B4800F0AAFDB860DD
:10326000394800F0C1FD0346FB713848FFF70BFDFC
:103270000346002B31D0364B1979354B5A79344BF4
:103280009B7903F2B2739BB23048FEF755F8304B8E
:1032900019792F4B5A792E4BDB78013BDBB22B4847
:1032A000FEF74EFEBA68F9682848FEF7FFFAFB7988
:1032B00019462648FEF788FBC820FFF791FF034612
:1032C0007B717B7919462148FEF73EFA1F48FFF7CC
:1032D00061FD0346002BCED12DE01D4B19791C4B0F
:1032E0005A791B4B9B7903F2B2739BB21748FEF7D6
:1032F00023F8174B1979164B5A79154BDB78013B9C
:10330000DBB21248FEF71CFEBA68F9680F48FEF7F8
:10331000CDFAFB7919460D48FEF756FBC820FFF79A
:103320005FFF0346BB71BB7919460848FEF70CFAEC
:103330000648FFF70EFD00BF1037BD4680BD00BF39
:103340000000002090020020140200207C010020D8
:103350007C02002080B500AF002202210948FFF75F
:10336000BBFC03210748FDF74FFEFFF767FF002175
:103370000448FFF71AFDFFF7F5FEFFF7BBFE00BF9D
:1033800080BD00BF7C01002080B584B000AF7860B4
:103390000B46FB70FB78052B7DD801A252F823F079
:1033A000B9330008DF33000805340008173400087B
:1033B0003D340008633400087B689B780133DAB23F
:1033C0007B689A707B689B78172B8CBF0123002346
:1033D000DBB2002B61D07B6800229A705DE07B68D5
:1033E0005B780133DAB27B685A707B685B783B2B81
:1033F0008CBF01230023DBB2002B50D07B6800225E
:103400005A704CE079682A48FFF7F0FA03461A46EA
:103410007B681A7148E07B685B790133DAB27B68BC
:103420005A717B685B790C2B8CBF01230023DBB2C4
:10343000002B36D07B6801225A7132E07B689B7981
:103440000133DAB27B689A717B689B79822B8CBFDF
:1034500001230023DBB2002B25D07B6836229A7132
:1034600021E0144B1B78FB73FB7B0133FB73FB7B6D
:10347000012B8CBF01230023DBB2002B01D00023E2
:10348000FB730C4AFB7B13700A4B1B7819460848E8
:10349000FDF736FF08E000BF06E000BF04E000BF14
:1034A00002E000BF00E000BF00BF1037BD4680BD96
:1034B0007C0100208302002080B582B000AF6F48FD
:1034C000FFF7C3FD4FF448716D48FFF7F5FD01228A
:1034D0004FF400616B4804F0F9F901216A48FFF7E5
:1034E00064FC6648FFF7CBFD0346BB71BB79012B3B
:1034F00002D8664ABB791370002202216248FFF7A6
:10350000EBFB624B1B7819465F48FDF7F9FE032180
:103510005D48FDF779FD5E495848FFF768FD0346B1
:1035200083F00103DBB2002B15D05748FEF7CCF82F
:103530005548FFF70EFC00224FF40061514804F09B
:10354000C5F900215048FFF730FC44F6206002F036
:1035500011FBFFF7CFFD4E4B9B79352B02D84C4B1F
:1035600036229A714A4802F0B3F9386048493868FF
:1035700002F086F8386802F05FF800224FF400612C
:10358000404804F0A3F908214FF0904004F086F978
:103590000346012B0CBF01230023DBB2002B1FD0FD
:1035A000002201213848FFF797FB3748FEF7ACF8B7
:1035B0003548FFF7CEFB0023FB710BE04FF40061B1
:1035C000304804F09BF94FF4FA7002F0D3FAFB791B
:1035D0000133FB71FB79772BF0D9FFF7BBFE41E09C
:1035E0004FF40051274804F059F90346012B0CBF52
:1035F00001230023DBB2002B32D003212248FDF748
:1036000003FD2148FFF73FFB0346002B12D0204B60
:1036100019791F4B5A791E4B9B7903F2B2739BB2F7
:103620001948FDF789FE1848FFF7B4FB0346002B45
:10363000EDD10EE0164B1979154B5A79144B9B7945
:1036400003F2B2739BB21048FDF776FE0E48FFF707
:1036500080FB0D48FFF752FB0B48FEF71BFE09E00D
:10366000FFF7ECFD00210848FFF79FFBFFF77AFD0D
:10367000FFF740FD0837BD4680BD00BF10020020A7
:1036800060020020000400487C010020830200202A
:103690007C02002080B582B000AF504B1B68BFF3A6
:1036A0005B8F03F00103002B0CBF01230023DBB26F
:1036B000002B12D0494809F052FA0346002B14BFE0
:1036C00001230023DBB2002B07D002F047FA0346A8
:1036D000434A1360414809F04EFA4248FFF7FDFCA7
:1036E0000346FB71FB79022B17D13F4802F0F0F83B
:1036F0003860386801F0A0FF3B49386801F0C0FF2E
:1037000039493A48FFF780FC394B1B78194637484E
:10371000FFF7A6FCFFF71EFE36E0FB79012B1AD15E
:10372000344B1B780133DAB2324B1A70314B1B78B1
:10373000052B8CBF01230023DBB2002B02D02D4BC5
:1037400000221A702C4B01221A7002F007FA03466D
:10375000234A136018E02948FFF7BFFC0346002BFB
:1037600014BF01230023DBB2002B0DD0214B1B78AB
:1037700019461D48FFF708FE1F4B01221A7002F080
:10378000EDF90346164A13601B4B1B78002B09D03A
:10379000184B1B781A4614491948FEF75BFE164B66
:1037A00000221A70142002F0E5F902F0D7F902465F
:1037B0000B4B1B68D31A47F2305293428CBF012344
:1037C0000023DBB2002B05D007490848FFF70FFCA8
:1037D000FFF7C0FD00BF0837BD4680BD880200204E
:1037E00084020020440200207C02002010020020FD
:1037F000830200208C0200200400002060020020D0
:103800007C01002080B582B000AF78607B681B68C7
:10381000084A934209D1786802F029FE0346064A15
:103820001360064802F0E8FD00E000BF0837BD461F
:1038300080BD00BF00000450000000209002002066
:1038400080B582B000AF7860054A7B681A607B68FB
:103850001846FFF7C1FA7B6818460837BD4680BD99
:103860008C08010880B582B000AF78607868FFF7F7
:10387000E7FF9421786809F070F97B6818460837EB
:10388000BD4680BD80B582B000AF786039607B688E
:10389000012B19D13B684FF6FF72934214D11348A4
:1038A000FFF7BCFA1248FFF797FB1248FFF724FB1B
:1038B0004FF4005210491148FFF7ECFB4FF48052CF
:1038C0000D490F48FFF7E6FB7B68002B0AD13B68E8
:1038D0004FF6FF72934205D10648FFF75DFB0348A0
:1038E000FFF7AEFF00BF0837BD4680BD7C0100205A
:1038F00010020020140200200004004844020020AE
:103900006002002080B500AF4FF6FF710120FFF785
:10391000B9FF80BD80B500AF4FF6FF710020FFF703
:10392000B1FF80BD80B500AF02F0B0F800F00DF837
:1039300000F03CF900F0FCF800F0BAF800F054F8A0
:10394000FFF7BAFDFFF7A6FEFCE780B596B000AF23
:1039500007F114034422002118460BF005FF3B46F3
:1039600000221A605A609A60DA601A614FF400709F
:1039700004F04AFE0346002B01D000F09BF901231E
:103980007B614FF48033BB610223FB6303233B6401
:1039900001237B640A23BB640723FB6402233B658A
:1039A00002237B6507F11403184604F083FE0346E7
:1039B000002B01D000F07EF90F233B6003237B60D6
:1039C0008023BB600023FB6000233B613B46022158
:1039D000184605F083FA0346002B01D000F06AF97F
:1039E00000BF5837BD4680BD80B586B000AF3B46AE
:1039F00000221A605A609A60DA601A615A61294B93
:103A0000294A1A60274B00225A60264B00229A60EE
:103A1000244B0022DA60234B00221A61214B04223E
:103A20005A61204B00221A761E4B00225A761D4BFB
:103A30000122DA611B4B002283F82020194B00225F
:103A40009A62184B0022DA62164B002283F830206B
:103A5000144B00225A63134B002283F8382011487C
:103A600002F0D4FA0346002B01D000F023F90F4BEB
:103A70003B6006237B600723BB607F23FB6004233E
:103A80003B6100237B613B461946064802F0C4FEB9
:103A90000346002B01D000F00DF900BF1837BD46DA
:103AA00080BD00BF90020020000004508000501D27
:103AB00080B500AF1B4B1C4A1A601A4B1B4A5A6058
:103AC000184B00229A60174B0122DA60154B002236
:103AD0001A61144B00225A61124B00229A61114B59
:103AE0000022DA610F4B00221A620E4803F020FF19
:103AF0000346002B01D000F0DDF80021094804F056
:103B0000A3FC0346002B01D000F0D4F800210548A7
:103B100004F0E5FC0346002B01D000F0CBF800BF19
:103B200080BD00BFF402002000540040EC9C9010C7
:103B300080B500AF1B4B1C4A1A601A4B4FF48272BF
:103B40005A60184B00229A60164B4FF4E062DA601C
:103B5000144B00221A61134B00225A61114B4FF48F
:103B600000729A610F4B0822DA610E4B00221A6232
:103B70000C4B00225A620B4B00229A62094B07221F
:103B8000DA62084B00221A63064B08225A63054882
:103B900005F098FE0346002B01D000F08BF800BF23
:103BA00080BD00BF480300200030014080B588B0D0
:103BB00000AF07F10C0300221A605A609A60DA60C5
:103BC0001A613A4BDB6C394A43F08003D364374BBC
:103BD000DB6C03F08003BB60BB68344BDB6C334AA7
:103BE00043F00103D364314BDB6C03F001037B60D2
:103BF0007B682E4BDB6C2D4A43F00203D3642B4BC6
:103C0000DB6C03F002033B603B6800224FF4006171
:103C1000274803F05BFE01224FF4A0614FF0904073
:103C200003F054FE00224FF420614FF0904003F067
:103C30004DFE0823FB6000233B6100237B6107F1FD
:103C40000C0319464FF0904003F0AEFC4FF40063B4
:103C5000FB6001233B6100237B610023BB6107F113
:103C60000C031946124803F09FFC4FF43043FB60ED
:103C700000233B6100237B6107F10C0319460C48CC
:103C800003F092FC4FF47063FB6001233B6100235F
:103C90007B610023BB6107F10C0319464FF0904094
:103CA00003F082FC00BF2037BD4680BD00100240FB
:103CB0000004004880B400AF72B600BF00BFFDE74B
:103CC00080B582B000AF87ED010A97ED010A09F0D7
:103CD000ABFAF0EE407AB0EE670A0837BD4680BD19
:103CE00080B582B000AF87ED010A97ED010A09F0B7
:103CF000C7FAF0EE407AB0EE670A0837BD4680BDDD
:103D000080B582B000AF87ED010A97ED010A09F096
:103D1000E3FAF0EE407AB0EE670A0837BD4680BDA0
:103D200080B582B000AF87ED010A97ED010A09F076
:103D3000EFFCF0EE407AB0EE670A0837BD4680BD72
:103D400080B582B000AF87ED010A97ED010A09F056
:103D50000FFBF0EE407AB0EE670A0837BD4680BD33
:103D600080B582B000AF87ED010A97ED010A09F036
:103D700045FBF0EE407AB0EE670A0837BD4680BDDD
:103D800080B582B000AF786001F000FC02467B682D
:103D9000DB689A422CBF01230023DBB2002B02D048
:103DA000786800F075F87B685B6818460837BD4690
:103DB00080BD80B582B000AF786001F0E7FB0246BD
:103DC0007B68DB689A422CBF01230023DBB2002B07
:103DD00002D0786800F05CF87B689B68184608376A
:103DE000BD4680BD0000000080B586B000AF7860A1
:103DF00001F0CCFB78617969786800F0A7F8034698
:103E00001846FCF77FFB1EA3D3E90023FCF73CFA1E
:103E100002460B46104619461BA3D3E90023FCF7C4
:103E200015FD02460B4610461946FCF7BDFE03463B
:103E300000EE103A786800F05FF887ED040A386900
:103E4000FCF782FB10A3D3E90023FCF7D5FB024665
:103E50000B4610461946FCF7A7FE03463B61D7ED1B
:103E6000047AFCEEE77AC7ED007A3B78FB73FB7BC4
:103E70000133DBB218461837BD4680BDAFF3008072
:103E8000CDCCCC0C2FB44241D541CBABD4873D40F7
:103E900080B582B000AF78600121786800F0B8F892
:103EA00002467B685A600021786800F0B1F802464B
:103EB0007B689A607B6899687B689A680C4BA3FB67
:103EC00002031B0C0B4800FB03F3D31ACB1A03F5B8
:103ED000A83303F5C0737A68D3607B68DB687A68BF
:103EE000D2699A1A7B68DA6000BF0837BD4680BD88
:103EF00007452EC28051010080B582B000AF7860C6
:103F000087ED000A97ED000AFFF70AFFB0EE407A4E
:103F1000D7ED007A77EEC77AC7ED007AD7ED007A51
:103F2000F5EEC07AF1EE10FA07D5D7ED007AB7EECC
:103F3000007A77EE877AC7ED007A3B6807EE903A11
:103F4000B0EE670A0837BD4680BD000080B586B078
:103F500000AF78603960386801F000FB03467B6190
:103F6000386801F0E5FA03463B613B69022B03DD4B
:103F70003B69033B3B6105E03B6909333B617B697E
:103F8000013B7B617B691E4A82FB03125211DB17E6
:103F9000D31AFB60FB686FF0630202FB03F37A69DC
:103FA00013447B61386801F0ADFA03461946FB689B
:103FB000144A02FB03F3002B00DA03339B10CA18E8
:103FC0007B6940F2B55101FB03F3002B00DA0333A8
:103FD0009B10D1183A691346DB0013441A011344AD
:103FE0000233094A82FB03025210DB17D31A0B4437
:103FF00003F5D21303F21F3318461837BD4680BDB0
:104000001F85EB51B13A020067666666000000004A
:104010002DE9B0432DED028B9AB000AFF8600B464E
:10402000FB7201F0B3FA0246FB68DB6913443B659F
:1040300007F110031946386D01F022FB0C23BB7405
:1040400000237B7400233B7407F11003184601F032
:104050003FFC3865FB68DB691A463B6D9B1A3B6584
:10406000386D01F065FA03461A4640F2131302FB5D
:1040700003F32C4A82FB03125210DB17D31AFB64A2
:10408000386D01F055FA03460933274A82FB0312C3
:104090005210DB17D31ABB64386D01F05FFA034688
:1040A0001C46386D01F05AFA03469B089BB29B00F0
:1040B000E31A02331D4A82FB0312DB17D31A0133C2
:1040C0007B64BB6C7A6C02FB03F3FA6CD41A386D18
:1040D00001F018FA034623441E3B3B64FB6893ED52
:1040E000057AF2EE0E6AC7EE267AC7ED0F7A4FF028
:1040F00000037B66FB7A002B1AD03B6C07EE903AEC
:10410000B8EEE77AF1EE086AD7ED0F7A76EEE76A55
:10411000B3EE086AC6EE867A77EE277AC7ED197A8B
:1041200019E000BF398EE338ABAAAA2A5655555577
:104130003B6C07EE903AB8EEE77AF3EE026AD7ED01
:104140000F7A76EEE76AB3EE086AC6EE867A77EE05
:10415000277AC7ED197A786EFCF7F6F9EDA3D3E963
:104160000023FCF749FA02460B4610461946EBA31A
:10417000D3E90023FCF788F802460B46104619469F
:10418000FCF712FD0346BB63FB68D3ED087A97ED9D
:104190000E7A67EE277AC7ED0E7AB86BFCF7D4F982
:1041A00004460D46FB681B6A1846FCF7CDF9DDA3F3
:1041B000D3E90023FCF720FA02460B4690469946C5
:1041C00097ED0E0AFFF7BCFD10EE103A1846FCF70B
:1041D000BBF902460B4640464946FCF70DFA02463B
:1041E0000B4620462946FCF751F802460B4614467A
:1041F0001D46FB681B6A1846FCF7A6F9CBA3D3E95A
:104200000023FCF7F9F902460B4690469946D7ED94
:104210000E7A77EEA77AB0EE670AFFF791FD10EEFF
:10422000103A1846FCF790F902460B4640464946BC
:10423000FCF7E2F902460B4620462946FCF726F831
:1042400002460B4614461D46FB681B6A1846FCF7DF
:104250007BF9B8A3D3E90023FCF7CEF902460B465D
:1042600020462946FCF712F802460B46104619462E
:10427000FCF79AFC03463B66D7ED187AF5EEC07A58
:10428000F1EE10FA08D5FB68D3ED0A7A97ED187AAB
:1042900077EE277AC7ED187AFB68D3ED0A7A97EDA7
:1042A000187AB4EEE77AF1EE10FA08DDFB68D3ED88
:1042B0000A7A97ED187A77EE677AC7ED187AFB6875
:1042C0005B6A1846FCF740F904460D4697ED180A5C
:1042D000FFF746FD10EE103A1846FCF735F997A3A4
:1042E000D3E90023FCF788F902460B4643EC172B71
:1042F000B0EE470AF0EE670A08F0A2FD53EC102B6F
:1043000020462946FCF778F902460B461046194626
:10431000FCF74AFC0346FB65D7ED177AF5EEC07A49
:10432000F1EE10FA07D5D7ED177A9FED777A77EE91
:10433000877AC7ED177AD7ED177A9FED737AF4EE87
:10434000C77AF1EE10FA07DDD7ED177A9FED6E7A96
:1043500077EEC77AC7ED177A386EFCF7F5F866A3E3
:10436000D3E90023FCF772FA02460B4643EC172B05
:10437000B0EE470AF0EE670A09F04EF951EC100B67
:104380004FF00002614BFCF737F902460B4610462E
:104390001946FCF7E1FB03467B63D7ED177ADFEDA7
:1043A0005C6A87EEA67AB0EE470AFFF7B9FCF0EE3A
:1043B000407A9FED577A67EE877AFDEEE77A17EE3F
:1043C000903A3B637A6B3B6BD31A07EE903AF8EE68
:1043D000E77A97ED177A77EE277AC7ED177A97ED98
:1043E000177AF2EE0E6AC7EE267AC7ED177A97EDC6
:1043F000180AFFF7A5FC10EE103A1846FCF7A4F8CF
:104400003FA3D3E90023FCF7F7F802460B4610461A
:104410001946FCF7C9FB0346FB6297ED0B0AFFF751
:104420005FFCF0EE407AB0EE670AFFF769FC87EDBB
:104430000A0AFB68D3ED0B7AB0EE670AFFF760FC5F
:10444000B0EE408AFB6893ED047AFB68D3ED087AFE
:1044500067EE277AB0EE670AFFF772FCB0EE407A9B
:10446000D7ED0B7A67EE277A38EE678AFB6893ED13
:10447000047AFB68D3ED087A67EE277AB0EE670A14
:10448000FFF73EFCB0EE407AD7ED0A7A27EE277AA6
:10449000C8EE077AC7ED097AD7ED097AB7EE007A48
:1044A000F4EEC77AF1EE10FA01DD00231CE1D7ED3E
:1044B000097ABFEE007AF4EEC77AF1EE10FA01D570
:1044C000002311E14FF00003BB65FB7A002B39D0CC
:1044D000FB6893ED098A97ED090AFFF7F1FBF0EE0F
:1044E000407A68EE277A9FED087A77EE677AC7ED13
:1044F000167A34E0AFF30080182D4454FB21F93FC5
:104500004B766C04E275D93F0000B44300805640FE
:104510000000B442D200DE02098AEF3F1D5A643B1C
:10452000DF4F0A400E2DB29DEFA7FE3F7B14AE4732
:10453000E17A943FA01A2FDD24AA7140CC0BB08FF2
:104540004E5DED3FFB6893ED098A97ED090AFFF791
:10455000B7FBF0EE407A68EE277AC7ED167A97ED52
:10456000167AF2EE0E6AC7EE267AC7ED167A97ED46
:10457000167AD7ED177A77EE277A17EE900AFBF7BF
:10458000E3FF04460D46786EFBF7DEFF5BA3D3E93D
:104590000023FCF731F802460B4620462946FBF77C
:1045A00073FE02460B461046194656A3D3E9002374
:1045B000FBF76AFE02460B4610461946FCF7F4FA72
:1045C00003467B65D7ED157AF5EEC07AF1EE10FA69
:1045D00007D5D7ED157AB3EE087A77EE877AC7ED6F
:1045E000157AD7ED157AB3EE087AF4EEC77AF1EEC4
:1045F00010FA07DDD7ED157AB3EE087A77EEC77AB1
:10460000C7ED157A97ED157AD7ED0F7A77EE677AC1
:10461000C7ED087A386AFBF797FF04460D46FB683A
:10462000DB6907EE903AF8EEE77A17EE900AFBF7AF
:104630008BFF36A3D3E90023FCF708F902460B46AB
:1046400020462946FBF722FE02460B461046194635
:10465000FCF7AAFA0346FB61D7ED077AFCEEE77A8E
:10466000C7ED017A3B79DBB2BB74BB7C07EE903AB5
:10467000F8EEE77A97ED077A77EE677AC7ED077A73
:10468000D7ED077A9FED1C7A67EE877AC7ED077A38
:10469000D7ED077AFCEEE77AC7ED017A3B79DBB21A
:1046A0007B747B7C07EE903AF8EEE77A97ED077A19
:1046B00077EE677AC7ED077AD7ED077A9FED0E7A26
:1046C00067EE877AC7ED077AD7ED077AFCEEE77ACF
:1046D000C7ED017A3B79DBB23B7407F11003184652
:1046E00001F0F6F8B861BB6918466837BD46BDEC05
:1046F000028BBDE8B08300BF00007042352905DDA4
:104700005ED2B03FB0726891ED7C1A4000000000AC
:104710000020AC4090B587B000AFF860B960134698
:10472000FB71BB681B6810331B68FA791146B868C7
:104730009847044607F11403184608F01FFA07F1DA
:1047400014031A462146F86808F012FB07F1140317
:10475000184608F014FAF8681C37BD4690BD80B4BE
:1047600083B000AF78607B68DB6D18460C37BD46C0
:104770005DF8047B704780B483B000AF78607B68DD
:10478000DB6E18460C37BD465DF8047B704780B47D
:1047900083B000AF78607B681B6F18460C37BD464E
:1047A0005DF8047B7047000080B483B000AF786090
:1047B000034B18460C37BD465DF8047B704700BFBD
:1047C0003003010880B483B000AF7860002318463E
:1047D0000C37BD465DF8047B704780B483B000AFF2
:1047E00078607B68DB6D18460C37BD465DF8047B4E
:1047F000704780B483B000AF78607B68DB6E18468A
:104800000C37BD465DF8047B704780B483B000AFC1
:1048100078607B681B6F18460C37BD465DF8047BDB
:104820007047000080B483B000AF7860034B184637
:104830000C37BD465DF8047B704700BF38030108A4
:1048400080B483B000AF7860012318460C37BD46B2
:104850005DF8047B704780B483B000AF78600B468E
:10486000FB70FB78062B01D90623FB70FB787A6876
:104870009B0013445B6818460C37BD465DF8047B0B
:10488000704780B483B000AF78600B46FB70FB7854
:10489000062B01D90623FB70FA787B68083253F89F
:1048A000223018460C37BD465DF8047B704780B453
:1048B00083B000AF78600B46FB70FB78002B01D112
:1048C0000123FB70FB780C2B01D90C23FB70FB78C8
:1048D000013B7A680E339B0013445B6818460C3723
:1048E000BD465DF8047B704780B483B000AF78604C
:1048F0000B46FB70FB78062B01D90623FB70FB7877
:104900007A689B0013445B6818460C37BD465DF817
:10491000047B704780B483B000AF78600B46FB70B7
:10492000FB78062B01D90623FB70FA787B680832E6
:1049300053F8223018460C37BD465DF8047B7047AB
:1049400080B483B000AF78600B46FB70FB78002B1F
:1049500001D10123FB70FB780C2B01D90C23FB70D8
:10496000FB78013B7A680E339B0013445B68184662
:104970000C37BD465DF8047B7047000090B587B0EA
:1049800000AFF860B9601346FB71BB681B68103359
:104990001B68FA791146B8689847044607F1100376
:1049A000184608F0EBF807F110031A462146F8689C
:1049B00008F0DEF907F11003184608F0E0F8F8688F
:1049C00008F038F90346FB75FB7D023B1946F86891
:1049D00008F073F903461B781B021CB2FB7D013BF8
:1049E0001946F86808F069F903461B781BB223439F
:1049F0001BB2BB82BB8A4DF28C12934204D0BB8A9D
:104A00004DF2B902934212D1FB7D023B1946F86880
:104A100008F053F90346D1221A70FB7D013B194679
:104A2000F86808F04AF903468F221A7003E0044937
:104A3000F86808F069F900BFF8681C37BD4690BDFA
:104A40004803010880B483B000AF0F4B1B6E0E4AC1
:104A500043F0010313660C4B1B6E03F001037B60F4
:104A60007B68094B9B6D084A43F080539365064B66
:104A70009B6D03F080533B603B6800BF0C37BD4625
:104A80005DF8047B704700BF0010024080B5A0B005
:104A900000AF786007F16C0300221A605A609A60D8
:104AA000DA601A6107F110035C22002118460AF04F
:104AB0005BFE7B681B68294A93424BD14FF48043CD
:104AC0003B614FF080533B6603237B610123BB6155
:104AD0000823FB6107233B6202237B620223BB6244
:104AE0004FF08073FB6207F11003184604F0E0FBFF
:104AF0000346002B01D0FFF7DDF8194BDB6C184A99
:104B000043F40053D364164BDB6C03F40053FB6097
:104B1000FB68134BDB6C124A43F00103D364104B68
:104B2000DB6C03F00103BB60BB680423FB660B2353
:104B30003B6700237B6707F16C0319464FF09040F9
:104B400002F032FD00220021122002F0F6FC1220B9
:104B500002F00FFD00BF8037BD4680BD000004504D
:104B60000010024080B5A0B000AF786007F16C0380
:104B700000221A605A609A60DA601A6107F1100325
:104B80005C22002118460AF0EFFD7B681B681F4A73
:104B9000934237D140233B614FF480533B6407F18C
:104BA0001003184604F084FB0346002B01D0FFF7E6
:104BB00081F8174BDB6C164A43F00203D364144BA5
:104BC000DB6C03F00203FB60FB684FF4C073FB6611
:104BD00012233B6700237B670323BB670423FB6728
:104BE00007F16C0319460B4802F0DEFC084B9B6D85
:104BF000074A43F400139365054B9B6D03F40013C0
:104C0000BB60BB6800BF8037BD4680BD005400401C
:104C1000001002400004004880B58AB000AF786000
:104C200007F1140300221A605A609A60DA601A6170
:104C30007B681B68184A934229D1184B1B6E174A90
:104C400043F480531366154B1B6E03F480533B6192
:104C50003B69124BDB6C114A43F00103D3640F4BE9
:104C6000DB6C03F00103FB60FB6841F202037B6134
:104C70000223BB610023FB6103233B6205237B62AC
:104C800007F1140319464FF0904002F08DFC00BF6D
:104C90002837BD4680BD00BF0030014000100240F3
:104CA00080B400AF00BFFDE780B400AF00BFFDE7F8
:104CB00080B400AF00BFFDE780B400AF00BFFDE7E8
:104CC00080B400AF00BFFDE780B400AF00BFBD46B9
:104CD0005DF8047B704780B400AF00BFBD465DF84F
:104CE000047B704780B400AF00BFBD465DF8047B15
:104CF000704780B500AF00F01DFF00BF80BD000011
:104D000080B500AF024801F0BFFB00BF80BD00BF0F
:104D10009002002080B400AF01231846BD465DF824
:104D2000047B704780B582B000AF786039600AF0CC
:104D300077FD034616221A604FF0FF3318460837F6
:104D4000BD4680BD80B582B000AF78604FF0FF31C6
:104D50007868FFF7E7FF00BFFDE7000080B586B089
:104D600000AF7860144A154BD31A7B617B693B61B5
:104D7000134B1B68002B02D1114B124A1A60104BC7
:104D80001A687B6813443A699A4207D20AF048FDD0
:104D900003460C221A604FF0FF3309E0084B1B68F2
:104DA000FB60074B1A687B681344054A1360FB6875
:104DB00018461837BD4680BD0000012000040000E1
:104DC000AC0300203005002080B400AF064BD3F8C0
:104DD0008830054A43F47003C2F8883000BFBD46EE
:104DE0005DF8047B704700BF00ED00E080B487B041
:104DF00000AFF860B9607A603B60BA687B689A423D
:104E000001D13B6815E07A68BB68D31A5B107B61FF
:104E1000FA68BB68D31A396A3A688A1A03FB02F245
:104E20007B691A447968BB68CB1A92FBF3F23B6842
:104E3000134418461C37BD465DF8047B704780B4A8
:104E400085B000AFF860B9607A60FA68BB689A42D2
:104E500001DABB6806E0FA687B689A4201DD7B688C
:104E600000E0FB6818461437BD465DF8047B7047C8
:104E7000DFF834D0FFF7A8FF0C480D490D4A002396
:104E800002E0D458C4500433C4188C42F9D30A4AFF
:104E90000A4C002301E013600432A242FBD30AF063
:104EA000C5FCFEF73FFDFEE70000012000000020EA
:104EB00078000020044E0108780000203005002012
:104EC000FEE780B483B000AF0346FB71FB791B099A
:104ED000DBB21A46920013445B00DAB2FB7903F0AE
:104EE0000F03DBB21344DBB218460C37BD465DF846
:104EF000047B704780B483B000AF0346FB71FB793D
:104F00000D4AA2FB0323DB08DBB21B0158B2FA797E
:104F1000094BA3FB0213D9080B469B000B445B0013
:104F2000D31ADBB25BB203435BB2DBB218460C3779
:104F3000BD465DF8047B7047CDCCCCCC80B588B045
:104F400004AF78604FF47A7302930723019307F15B
:104F50000803009301230022D021524802F098FE5A
:104F60000346002B01D0002398E00023FB73FB7B5A
:104F70005A1CFA7310333B4413F8083C03F07F03C8
:104F8000DBB21846FFF79DFF03461A467B681A708E
:104F9000FB7B5A1CFA7310333B4413F8083C03F0B4
:104FA0007F03DBB21846FFF78CFF03461A467B6887
:104FB0005A70FB7B10333B4413F8083C03F040036A
:104FC000002B1ED0FB7B10333B4413F8083C03F04E
:104FD0001F03DBB21846FFF774FF03461A467B68CF
:104FE0009A70FB7B10333B4413F8083C03F020031A
:104FF000002B15D07B689B780C33DAB27B689A70F3
:105000000EE0FB7B10333B4413F8083C03F03F03F6
:10501000DBB21846FFF755FF03461A467B689A70C5
:10502000FB7B0133FB73FB7B5A1CFA7310333B444D
:1050300013F8083C03F00703DAB27B68DA70FB7BF5
:105040005A1CFA7310333B4413F8083C03F03F0337
:10505000DBB21846FFF735FF03461A467B681A7124
:10506000FB7B5A1CFA7310333B4413F8083C03F0E3
:105070001F03DBB21846FFF724FF03461A467B687E
:105080005A71FB7B10333B4413F8083C1846FFF77A
:1050900018FF03461A467B689A7101231846103799
:1050A000BD4680BDF402002090B589B004AF7860A1
:1050B0000023FB737B681B781846FFF71BFF034632
:1050C0001A46FB7B591CF97302F07F02D2B21033EF
:1050D0003B4403F8082C7B685B781846FFF70AFF0F
:1050E00003461A46FB7B591CF97302F07F02D2B2C9
:1050F00010333B4403F8082C7B689B781846FFF775
:10510000F9FE03461A46FB7B591CF97302F03F0275
:10511000D2B210333B4403F8082C7B68DA78FB7B6F
:10512000591CF97302F00702D2B210333B4403F862
:10513000082C7B681B791846FFF7DCFE03461A46ED
:10514000FB7B591CF97302F03F02D2B210333B448F
:1051500003F8082C7B685B791846FFF7CBFE034603
:105160001A46FB7B591CF97302F03F02D2B210338E
:105170003B4403F8082C7B689B79FC7B1846FFF7BF
:10518000B9FE03461A4604F110033B4403F8082C09
:105190004FF47A7302930723019307F108030093F6
:1051A00001230022D021064802F05EFC0346002BBA
:1051B0000CBF01230023DBB218461437BD4690BD57
:1051C000F402002080B588B004AF03463A60FB715A
:1051D0000B46BB710023FB73FB7903F00103FB71EA
:1051E0003B681B781846FFF785FE03461A46FB7B93
:1051F000591CF97302F07F02D2B210333B4403F81A
:10520000082C3B685B781846FFF774FE03461A4685
:10521000FB7B591CF97302F07F02D2B210333B447E
:1052200003F8082C3B689B781846FFF763FE03469B
:105230001A46FB7B591CF97302F03F02D2B21033BD
:105240003B4403F8082CBB7903F01003002B13D068
:105250003B68DB781846FFF74DFE03465BB203F070
:1052600007035BB243F040035AB2FB7BD2B2103368
:105270003B4403F8082C0EE03B681B791846FFF707
:1052800039FE03461A46FB7B02F03F02D2B21033CE
:105290003B4403F8082CBB7903F00803002B0ED025
:1052A000FB7B5A1EFA731A4610323A4412F8082C45
:1052B00062F07F02D2B210333B4403F8082CBB7972
:1052C00003F00403002B0ED0FB7B5A1EFA731A4620
:1052D00010323A4412F8082C62F07F02D2B2103336
:1052E0003B4403F8082CBB7903F00203002B0ED0DB
:1052F000FB7B5A1EFA731A4610323A4412F8082CF5
:1053000062F07F02D2B210333B4403F8082CBB7921
:1053100003F00103002B0CD0FB7B10333B4413F84C
:10532000082CFB7B62F07F02D2B210333B4403F8BF
:10533000082CFB79002B13D04FF47A7302930323CC
:10534000019307F108030133009301230B22D021BD
:10535000284802F089FB0346002B14D0002345E0C7
:105360004FF47A7302930423019307F10803009327
:1053700001230722D0211F4802F076FB0346002BB1
:1053800001D0002332E04FF47A730293012301939A
:1053900007F10803009301230E22D021154802F0E3
:1053A00077FC0346002B20D13A7AFB79012101FAE0
:1053B00003F3DBB21343DBB243F00203DBB23B7215
:1053C0004FF47A7302930123019307F108030093CA
:1053D00001230E22D021074802F046FB0346002B92
:1053E0000CBF01230023DBB200E000231846103776
:1053F000BD4680BDF402002080B586B004AF0346F0
:10540000FB71FB793B2B01D900231BE0FB7918468C
:10541000FFF770FD034603F07F03DBB2FB714FF42F
:105420007A73029301230193FB1D009301230B2246
:10543000D021064802F018FB0346002B0CBF0123C5
:105440000023DBB218460837BD4680BDF4020020B9
:1054500080B586B004AF0023FB714FF47A730293DA
:1054600001230193FB1D009301230B22D0210A4845
:1054700002F00EFC0346002B08D1FB7903F07F03FA
:10548000DBB21846FFF71DFD0346FB71FB7918469A
:105490000837BD4680BD00BFF402002080B586B04D
:1054A00004AF0023BB710023FB714FF47A730293A6
:1054B00001230193BB1D009301230F22D02110482B
:1054C00002F0E6FB0346002B14D1BB7903F0030383
:1054D000FB71FB79DB43DBB2BB714FF47A73029350
:1054E00001230193BB1D009301230F22D021044807
:1054F00002F0BAFAFB7918460837BD4680BD00BFF6
:10550000F402002080B582B000AF78607B68002B89
:1055100002D100F03BF87860786800F09FFA034B06
:105520001B7918460837BD4680BD00BFB003002078
:1055300080B582B000AF78607B68002B02D100F0AC
:1055400025F87860786800F089FA034B5B79184693
:105550000837BD4680BD00BFB003002080B582B0D3
:1055600000AF78607B68002B02D100F00FF8786004
:10557000786800F073FA044B9B7903F2B2739BB224
:1055800018460837BD4680BDB003002080B582B004
:1055900000AF0AE0214B1B680133204A1360204B07
:1055A0001B6803F57A731E4A136000F0D7FA0246AF
:1055B0001B4B1B68D31AB3F57A7FEBD2194B1A68D1
:1055C000164B1B689A4223D8174B1B68002B1FD021
:1055D000154B1B68154898470346002B07D0134806
:1055E00000F076F97860786800F026F810E00B4B50
:1055F0001A680F4B1B6813440A4A13600D4B1B7843
:10560000002B14BF01230023DBB21A46094B1A708A
:10561000024B1B6818460837BD4680BDBC030020FE
:10562000C0030020C4030020CC030020B0030020EE
:105630000C000020C803002080B582B000AF786065
:105640000A4A7B6813600A4B1A687B681344094A4C
:105650001360094B02221A7000F080FA0346074AD1
:10566000136000BF0837BD4680BD00BFBC030020EB
:105670000C000020C4030020C8030020C003002049
:1056800080B487B000AF786039607B687B617969EE
:105690008A4BA3FB01235A0913461B019B1A9B004B
:1056A000CA1AD2B23B681A707B69844AA2FB0323F0
:1056B0005B097B617969814BA3FB01235A0913467E
:1056C0001B019B1A9B00CA1AD2B23B685A707B69B5
:1056D0007A4AA2FB03235B097B617969784BA3FBC0
:1056E00001231A0913465B001344DB00CA1AD2B225
:1056F0003B689A707B69724AA2FB03231B097B619A
:105700007B691A1D6F4BA3FB0213D11A49080B4486
:1057100099080B46DB005B1AD11ACBB20133DAB21F
:105720003B68DA700023FB740023FB6002E0FB7C23
:105730000133FB74FB7C03F2B27303F00303002B11
:1057400021D1FB7C03F2B2725F4B83FB0213591130
:10575000D317CB1A642101FB03F3D31A002B0FD10B
:10576000FB7C03F2B272584B83FB0213D911D3179F
:10577000CB1A4FF4C87101FB03F3D31A002B02D1EB
:105780004FF4B77301E040F26D13FA681344FB6005
:10579000FA687B699A42CAD93B68FA7C9A71FB7CA9
:1057A00003F2B27303F00303002B21D1FB7C03F25D
:1057B000B272454B83FB02135911D317CB1A6421E4
:1057C00001FB03F3D31A002B0FD1FB7C03F2B2725F
:1057D0003D4B83FB0213D911D317CB1A4FF4C87179
:1057E00001FB03F3D31A002B02D14FF4B77301E08E
:1057F00040F26D13FA68D31AFB607A69FB68D31A1A
:105800007B610023FB600023FB720023BB7200233B
:10581000FB723DE0FB7A012B2BD1FB7C03F2B273D0
:1058200003F00303002B21D1FB7C03F2B272264B61
:1058300083FB02135911D317CB1A642101FB03F325
:10584000D31A002B0FD1FB7C03F2B2721E4B83FBE9
:105850000213D911D317CB1A4FF4C87101FB03F30C
:10586000D31A002B02D11D23BB7206E01C23BB728E
:1058700003E0FB7A154AD35CBB72BB7A7A699A4221
:105880000AD3BB7A7A69D31A7B61FB7A0133FB7244
:10589000FB7A0B2BBED900E000BFFB7A0133DAB2F2
:1058A0003B685A717B69DBB20133DAB23B681A712B
:1058B00000BF1C37BD465DF8047B70478988888827
:1058C000ABAAAAAA254992241F85EB51C844010816
:1058D00080B487B000AF78607B689B791A465B4BD9
:1058E00002FB03F37B6100233B6133E03B696FF410
:1058F000F66293422BDB3B6903F2B27303F00303BE
:10590000002B24D13B6903F2B272514B83FB02138B
:105910005911D317CB1A642101FB03F3D31A002BBF
:105920000FD13B6903F2B272494B83FB0213D911C9
:10593000D317CB1A4FF4C87101FB03F3D31A002B12
:1059400005D17B6903F5A83303F5C0737B613B691F
:1059500001333B617B689B791A463B699342C5DB07
:105960000123FB6040E0FB68022B2FD17B689B7911
:1059700003F2B27303F00303002B27D17B689B79FA
:1059800003F2B272324B83FB02135911D317CB1AB5
:10599000642101FB03F3D31A002B10D17B689B79A0
:1059A00003F2B2722A4B83FB0213D911D317CB1A1D
:1059B0004FF4C87101FB03F3D31A002B06D17B69A6
:1059C00003F5181303F56E537B610AE0FB68013B96
:1059D000204AD35C1A46204B02FB03F37A69134436
:1059E0007B61FB680133FB607B685B791A46FB686F
:1059F0009342B8DB7B681B79013B1A46164B02FBCE
:105A000003F37A6913447B617B689B781A464FF4F1
:105A1000616302FB03F37A6913447B617B685B7803
:105A20001A4613461B019B1A9B001A467B691344B6
:105A30007B617B681B781A467B6913447B617B69B9
:105A400018461C37BD465DF8047B70478033E10182
:105A50001F85EB51C84401088051010080B582B018
:105A600000AF7860074B1B687A689A4206D00649F7
:105A70007868FFF705FE034A7B68136000BF0837AC
:105A8000BD4680BDB8030020B003002080B582B0C1
:105A900000AF0023FB71032001F044FD0F2000F054
:105AA0000DF80346002B02D00123FB7101E0FEF745
:105AB000C9FFFB7918460837BD4680BD80B584B064
:105AC00000AF78600023FB73174B1B78002B23D0AB
:105AD000164B1A68144B1B7819464FF47A73B3FBB4
